:020000040800F2
:100000000004002031080008310900083109000807
:1000100031090008310900083109000831090008D8
:100020003109000831090008310900088109000878
:100030003109000831090008310900085109000898
:1000400031090008310900083109000831090008A8
:100050003109000831090008310900083109000898
:100060003109000831090008310900083109000888
:100070003109000831090008310900083109000878
:100080003109000831090008310900083109000868
:100090003109000831090008310900083109000858
:1000A00031090008C133000831090008310900088E
:1000B000E13300083109000831090008310900085E
:1000C0003109000831090008310900083109000828
:1000D0003109000831090008310900083109000818
:1000E0003109000831090008310900083109000808
:1000F00031090008310900083109000831090008F8
:1001000031090008310900083109000831090008E7
:1001100031090008310900083109000831090008D7
:1001200031090008310900083109000831090008C7
:1001300031090008310900083109000831090008B7
:10014000310900083109000831090008E1410008BF
:100150003109000831090008310900083109000897
:100160003109000831090008310900083109000887
:100170003109000831090008310900083109000877
:080180003109000831090008F3
:10019000844641EA000313F003036DD1403A41D392
:1001A00051F8043B40F8043B51F8043B40F8043B51
:1001B00051F8043B40F8043B51F8043B40F8043B41
:1001C00051F8043B40F8043B51F8043B40F8043B31
:1001D00051F8043B40F8043B51F8043B40F8043B21
:1001E00051F8043B40F8043B51F8043B40F8043B11
:1001F00051F8043B40F8043B51F8043B40F8043B01
:1002000051F8043B40F8043B51F8043B40F8043BF0
:1002100051F8043B40F8043B51F8043B40F8043BE0
:10022000403ABDD2303211D351F8043B40F8043B80
:1002300051F8043B40F8043B51F8043B40F8043BC0
:1002400051F8043B40F8043B103AEDD20C3205D390
:1002500051F8043B40F8043B043AF9D2043208D088
:10026000D2071CBF11F8013B00F8013B01D30B88FA
:1002700003806046704700BF082A13D38B078DD0D8
:1002800010F003038AD0C3F10403D21ADB071CBFAA
:1002900011F8013B00F8013B80D331F8023B20F814
:1002A000023B7BE7043AD9D3013A11F8013B00F84D
:1002B000013BF9D20B7803704B7843708B788370D5
:1002C00060467047000000000000000000000000D1
:1002D00000B583B00023009301F0D2FD00F090FC44
:1002E000264801F095FF2548254901F0C9FF244B18
:1002F0001B68DB6B224A1268D26B926B22F40022DD
:100300009A6344F6176001F003FA1D4B1B68184608
:100310001C4902F0B5FB1A4B1B68DB6B184A1268CC
:10032000D26B926B42F400229A6300F0E1F9002351
:1003300001931CE0019B1E2B07DD019A40F6B733A9
:100340009A4202DC00F044F806E0019A40F6B93324
:100350009A4201DD00F01CF8012001F0D9F9019B5F
:100360000133019305480849019A04F0E1FB074B6A
:100370001B6903F00103002BDCD1D8E71008002033
:1003800030580008205800081850000800000240AB
:100390000B4B1B68002B07D1094B01221A60094B3C
:1003A0004FF4FA721A600AE0054B1B68012B06D164
:1003B000034B00221A60034B32221A6000BF7047C1
:1003C000680A002000080020AFF30080AFF300802F
:1003D000084B1B68012B03D1064B00221A6007E073
:1003E000044B1B68002B03D1024B01221A6000BF93
:1003F000704700BF04080020AFF30080AFF3008017
:1004000000B583B00190B14B9B69B14A9A61A7E0F6
:10041000B04B4FF400521A83AF4B1B68013B42F2C2
:10042000107202FB03F3AD4A82FB03129211DB1739
:10043000D31A0133184601F06BF9A64B4FF4005262
:100440005A83A54B1B68013B42F2107202FB03F377
:10045000A24A82FB03129211DB17D31A013318460A
:1004600001F056F99B4B4FF480521A839A4B1B684C
:10047000013B42F2107202FB03F3984A82FB031223
:100480009211DB17D31A0133184601F041F9914B51
:100490004FF480525A83904B1B68013B42F210721A
:1004A00002FB03F38D4A82FB03129211DB17D31A6E
:1004B0000133184601F02CF9864B4FF400421A83A1
:1004C000854B1B68013B42F2107202FB03F3834A27
:1004D00082FB03129211DB17D31A0133184601F085
:1004E00017F97C4B4FF400425A837B4B1B68013B4E
:1004F00042F2107202FB03F3784A82FB031292115C
:10050000DB17D31A0133184601F002F9714B4FF48F
:1005100080421A83704B1B68013B42F2107202FB4F
:1005200003F36E4A82FB03129211DB17D31A0133D5
:10053000184601F0EDF8674B4FF480425A83664B42
:100540001B68013B42F2107202FB03F3634A82FB19
:1005500003129211DB17D31A0133184601F0D8F8B1
:100560005F4B1B68012B3FF453AFA7E0594B4FF48F
:1005700000521A83584B1B68013B42F2107202FB77
:1005800003F3564A82FB03129211DB17D31A01338D
:10059000184601F0BDF84F4B4FF400525A834E4BB2
:1005A0001B68013B42F2107202FB03F34B4A82FBD1
:1005B00003129211DB17D31A0133184601F0A8F881
:1005C000444B4FF480421A83434B1B68013B42F279
:1005D000107202FB03F3414A82FB03129211DB17F4
:1005E000D31A0133184601F093F83A4B4FF4804286
:1005F0005A83394B1B68013B42F2107202FB03F332
:10060000364A82FB03129211DB17D31A01331846C4
:1006100001F07EF82F4B4FF400421A832E4B1B68DB
:10062000013B42F2107202FB03F32C4A82FB0312DD
:100630009211DB17D31A0133184601F069F8254BE4
:100640004FF400425A83244B1B68013B42F2107264
:1006500002FB03F3214A82FB03129211DB17D31A28
:100660000133184601F054F81A4B4FF480521A83A4
:10067000194B1B68013B42F2107202FB03F3174A4D
:1006800082FB03129211DB17D31A0133184601F0D3
:100690003FF8104B4FF480525A830F4B1B68013BBD
:1006A00042F2107202FB03F30C4A82FB0312921116
:1006B000DB17D31A0133184601F02AF8084B1B68E0
:1006C000002B3FF453AF00BF4AE700BF10120020D9
:1006D00050510008000C024000080020D34D621069
:1006E00004080020AFF30080AFF30080AFF3008078
:1006F00000B583B00023009304484FF4DC7140221E
:10070000034B00F0CDFF03B05DF804FB700A00203E
:1007100001040008AFF30080AFF30080AFF3008066
:1007200082B001908DF803108DF80220ADF80030F2
:100730009DF80330022B05D0032B05D0012B0DD1E2
:10074000084B0CE0084B0AE09DF80230032B05D85B
:100750009DF80230DA00054B134400E000231846F0
:1007600002B07047A056000800570008A0570008C4
:1007700000B583B001900B468DF803309DF803302F
:10078000052B27D801A252F823F000BFD507000897
:10079000D5070008A5070008D5070008D5070008F9
:1007A000D5070008202383F3118800F009FB019886
:1007B00001210A4A02F0ACF901980221084A02F02C
:1007C000A7F9019801F094FD00F012FB002383F3D8
:1007D000118800E000BF03B05DF804FBC0570008BB
:1007E000F0570008AFF30080AFF30080AFF3008054
:1007F00008B502F04DFD08BDAFF30080AFF30080F7
:10080000704700BFAFF30080AFF30080AFF300800C
:10081000704700BFAFF30080AFF30080AFF30080FC
:10082000FEE700BFAFF30080AFF30080AFF30080BE
:1008300072B62D4C84F309882C4B4FF040425A601D
:100840002B4B2B4AD2F8882042F47002C3F8882040
:100850000024E1EE104A254BDC60062484F3148862
:10086000BFF36F8F234C244D04E023461C1D4FF033
:1008700055321A60AC42F8D3204C1B4D04E023469D
:100880001C1D4FF055321A60AC42F8D3FFF7B0FF91
:100890001B4D1C4C05E023461C1D2A46151D1268E5
:1008A0001A60194B9C42F6D3184C194D03E02346AD
:1008B0001C1D00221A60AC42F9D3FFF7A9FF154CAA
:1008C00002E0236898470434134B9C42F9D3FFF7A6
:1008D000FFFC124C02E0236898470434104B9C4202
:1008E000F9D3FFF79DFF00BF0008002030EF00E0C4
:1008F00000ED00E0000000200004002000040020C3
:10090000F0590008000800201008002010080020FE
:10091000A814002088010008880100088801000848
:1009200088010008AFF30080AFF30080AFF30080D0
:10093000FEE700BFAFF30080AFF30080AFF30080AD
:1009400072B6FEE7AFF30080AFF30080AFF3008034
:1009500008B500F065FA202383F3118800F030FA1F
:1009600000F08EF900F044FA002383F3118800F0C0
:1009700077FA00F045F808BDAFF30080AFF30080D0
:1009800082B0EFF309830193019B68330193084B15
:10099000019A526E5A60064B054A926868329A6014
:1009A000019B83F30988002383F3118802B0704709
:1009B00030EF00E0AFF30080AFF30080AFF30080D2
:1009C00008B50A4B00229A60084B094ADA600720F2
:1009D000102100F0DDF80A204FF4007100F0D8F883
:1009E0000B20802100F0D4F808BD00BF00ED00E02E
:1009F0000003FA05AFF30080AFF30080AFF300808F
:100A000082B0202383F31188264B5B6803F40063D4
:100A1000002B41D0EFF309830193019B683B0193C5
:100A2000019B83F30988019B4FF08072DA611E4BB2
:100A30009B6993F82330002B0BD01B4B1B689A68E3
:100A4000194B9B699B689A4294BF00230123DBB238
:100A50000AE0154B1B689A68134B9B699B689A4286
:100A600034BF00230123DBB2002B05D0019B0F4ACA
:100A70009A61F1EE10FA02E0019B0D4A9A61019B26
:100A800068330C4A52680092009A5A66094B009AE1
:100A900042F001025A6002E0002383F3118802B0A1
:100AA000704700BF00ED00E010120020C10A0008EE
:100AB000CC0A000830EF00E0AFF30080AFF3008015
:100AC00000F04EF900F024FD00F062F900DF00BFF5
:100AD00003460A462DE9F04F2DED108AC2F80CD0DE
:100AE000D3F80CD0BDEC108ABDE8F08FAFF30080D6
:100AF00008B500F04DF9002383F311882846A0477C
:100B000000F026FE08BD00BFAFF30080AFF3008009
:100B100010B485B001900091019B03F00303DB004A
:100B20000393194B019A9208174901988008C03025
:100B300051F820000399FF2404FA01F1C943084049
:100B40000399009C04FA01F10143C03243F82210DA
:100B50000D4B019A5209019901F01F01012000FA81
:100B600001F1603243F82210074B019A52090199B2
:100B700001F01F01012000FA01F143F8221005B035
:100B80005DF8044B704700BF00E100E0AFF3008068
:100B900010B485B001900091019B03F00303DB00CA
:100BA00003930D4B019A92080B4901988008063077
:100BB00051F820000399FF2404FA01F1C9430840C9
:100BC0000399009C04FA01F10143063243F8221014
:100BD00005B05DF8044B704700ED00E0AFF3008016
:100BE00082B00190024B9B69024A9A61FEE700BF06
:100BF00010120020E0510008AFF30080AFF3008036
:100C000000B583B0FFF7DCFE00F09AFA00F0D0F9EF
:100C100001F0C6F801F01CF900F072F91248402109
:100C200000F096FC0246114B9A61104B9B69012221
:100C300083F820200D4B9B690D4ADA6100F078F8AB
:100C4000002383F3118862B6084B9B69094A9A61B5
:100C50000023009308484FF4A4710122074B00F0D1
:100C60001FFD03B05DF804FBA00D00201012002052
:100C70000004002040590008580C0020E10B000837
:100C800000B583B000F00CF9244B9B6993F8233036
:100C9000002B07D0214B9B6993F82320013AD2B255
:100CA00083F823201D4B9B695A6A01325A621C4B00
:100CB000DB685A1C1A4BDA60194B1A68184B9A42B7
:100CC00029D0174B1B689A68013A9A601CE0019B77
:100CD000DB680093019B0022DA60019B1B68104ACD
:100CE0005A60019B1A680E4B1A6000F081F80023CD
:100CF00083F31188019B1A69009B104698472023B3
:100D000083F3118800F05CF8054B1B680193019B8D
:100D10009B68002BDBD003B05DF804FB10120020B1
:100D200000120020AFF30080AFF30080AFF300802B
:100D300008B5064B1B68002B03D1054B1B68002B25
:100D400002D0044800F024F908BD00BFEC0D0020DB
:100D5000F00D002000520008AFF30080AFF30080D8
:100D600008B5074B1B68002B03D1064B1B68002BF3
:100D700002D0054800F00CF9024B01221A6008BDB0
:100D8000EC0D0020F00D002008520008AFF30080A9
:100D900008B5074B1B68002B03D1064B1B68002BC3
:100DA00002DC054800F0F4F8024B00221A6008BD8E
:100DB000EC0D0020F00D002010520008AFF3008071
:100DC00008B5074B1B68002B03DD064B1B68002B87
:100DD00002D0054800F0DCF8024B01221A6008BD81
:100DE000EC0D0020F00D002018520008AFF3008039
:100DF00008B5074B1B68002B03DD064B1B68002B57
:100E000002DC054800F0C4F8024B00221A6008BD5D
:100E1000EC0D0020F00D002020520008AFF3008000
:100E200008B5202383F31188094B1B68002B03DBD3
:100E3000084B1B68002B02D0074800F0A9F8044BB0
:100E40001B685A1C024B1A60002383F3118808BDEB
:100E5000EC0D0020F00D002028520008AFF30080B8
:100E600008B5202383F31188094B1B68002B03DD91
:100E7000084B1B68002B02D0074800F089F8044B90
:100E80001B685A1E024B1A60002383F3118808BDA9
:100E9000EC0D0020F00D002030520008AFF3008070
:100EA00008B5064B1B68002B03DB054B1B68002BAA
:100EB00002DC044800F06CF808BD00BFEC0D002017
:100EC000F00D002038520008AFF30080AFF300802F
:100ED00008B5064B1B68002B03D1054B1B68002B84
:100EE00002DC044800F054F808BD00BFEC0D0020FF
:100EF000F00D002040520008AFF30080AFF30080F7
:100F0000034B40221A60024B024A5A60704700BFEE
:100F1000F40D0020FC0D0020AFF30080AFF3008043
:100F200082B00190124B5B68124AD2681A60104B73
:100F30005B68114A92695A600D4B5B68019A926A2C
:100F40009A600B4B5B68019A92F820201A73084B49
:100F50005B6803F11002064B5A60054B5A68074B59
:100F60009A4202D3024B064A5A6002B0704700BF51
:100F7000F40D00200012002010120020FC110020AF
:100F8000FC0D0020AFF30080AFF30080AFF30080D2
:100F900000B583B00190044B019A1A60FFF7D0FCB2
:100FA00003B05DF804FB00BFFC110020AFF300802C
:100FB000074B074A5A60064B5A68054B1A60044BA8
:100FC0004FF0FF329A60024B0022DA60704700BF98
:100FD00000120020AFF30080AFF30080AFF3008079
:100FE00000B587B00390029101920093FFF758FF7C
:100FF000039B002B05D0019B002B02D0029B002BF2
:1010000002D11D48FFF7C4FF039B009A1A61039B9E
:10101000019ADA60194B1B68059307E0059B9B68F2
:10102000029AD31A0293059B1B680593059B9A6845
:10103000029B9A42F2D3039B059A1A60039B1B689A
:101040005A68039B5A60039B5B68059A0399516039
:10105000059A52681A60039B029A9A60059A074B98
:101060009A4205D0059B9A68029BD21A059B9A600A
:1010700007B05DF804FB00BF5052000800120020CA
:1010800000B583B00190FFF70BFF019B002B02D14D
:101090001348FFF77DFF019BDB68002B02D111484D
:1010A000FFF776FF019B1A680F4B9A4208D0019B0D
:1010B0001B68019A12689168019A92680A449A60C2
:1010C000019B5B68019A12681A60019B1B68019A78
:1010D00052685A60019B0022DA6003B05DF804FB9D
:1010E000605200087052000800120020AFF3008028
:1010F00084B00190019B1B680393039B1A68019BBA
:101100001A60019B1B68019A5A60039B184604B041
:10111000704700BFAFF30080AFF30080AFF30080F3
:1011200082B00190019B5B68019A12681A60019B72
:101130001B68019A52685A60019B184602B07047BA
:10114000084B084A5A60074B5A68064B1A60054B11
:1011500000229A60034B034A5A61024B5A69014BC1
:101160001A61704710120020AFF30080AFF30080C7
:1011700000B585B00190FFF793FE019B93F82030F6
:10118000002B04D0019B93F820300E2B02D1134882
:10119000FFF7FEFE019B002283F82020104B0393F3
:1011A000039B1B680393039B9A68019B9B689A426D
:1011B000F6D2019B039A1A60039B5A68019B5A60FE
:1011C000019B5B68039A01995160039A52681A6007
:1011D000019B184605B05DF804FB00BF9052000863
:1011E00010120020AFF30080AFF30080AFF3008057
:1011F00000B585B003468DF80730FFF769FE164B42
:101200009B690393039B9DF8072083F82020039B91
:10121000142283F823201048FFF76AFF02460E4B82
:101220009A610D4B9B69012283F820200398FFF7F8
:1012300077FE6B46A3F16402039BDB699A4202D2FC
:101240000648FFF7A5FE044B9B6918460399FFF774
:101250003FFC05B05DF804FB10120020A45200080A
:1012600000B585B00190019B0393202383F311887F
:10127000FFF7A6FD039B93F820300D2B2CD801A27D
:1012800052F823F0BD120008D9120008D912000844
:10129000C9120008D9120008D3120008D912000898
:1012A000D9120008D9120008D9120008D912000872
:1012B000D9120008D9120008D3120008FFF798FDD0
:1012C000002383F3118813E0039B9B6A9A68013221
:1012D0009A600398FFF724FF039B4FF0FF329A6256
:1012E0000398FFF745FFFFF783FD002383F3118881
:1012F00005B05DF804FB00BFAFF30080AFF30080E2
:1013000000B589B0034600918DF80730FFF7E0FD86
:10131000009BB3F1FF3F15D0104B9B6903AA104609
:1013200000990F4AFFF75CFE9DF807301846FFF75B
:101330005FFF069B002B04D003AB1846FFF7A0FE0F
:1013400005E004E09DF807301846FFF751FF034B16
:101350009B699B6A184609B05DF804FB10120020D7
:1013600061120008AFF30080AFF30080AFF300809C
:1013700000B585B001900091FFF7AAFD019B009A8E
:101380009A62019B9A68154B9B699B689A4203D8A5
:101390000198FFF7EDFE1DE0104B9B691846FFF723
:1013A000E7FE03900D4B019A9A61019B012283F89D
:1013B00020200398FFF7B4FD6B46A3F16402039B62
:1013C000DB699A4202D20648FFF7E2FD01980399D1
:1013D000FFF77EFB05B05DF804FB00BF1012002094
:1013E000A4520008AFF30080AFF30080AFF3008099
:1013F00008B5FFF76DFD054B1B689A68034B9B69A9
:101400009B689A4201D900F03BF808BD10120020F9
:1014100000B583B0154B9B6901931448FFF768FE34
:101420000246124B9A61114B9B69012283F82020DE
:10143000019B142283F823200198FFF799FE01985D
:10144000FFF76EFD6B46A3F16402019BDB699A42D4
:1014500002D20748FFF79CFD044B9B69184601998F
:10146000FFF736FB03B05DF804FB00BF101200204D
:10147000A4520008AFF30080AFF30080AFF3008008
:1014800000B583B0204B9B6900931F48FFF730FEE7
:1014900002461D4B9A611C4B9B69012283F8202058
:1014A000009B002283F82020174B0193019B1B68AF
:1014B0000193019B9A68009B9B689A42F6D8009B17
:1014C000019A1A60019B5A68009B5A60009B5B68F6
:1014D000019A00995160019A52681A600098FFF7CA
:1014E0001FFD6B46A3F16402009BDB699A4202D2A6
:1014F0000648FFF74DFD044B9B6918460099FFF71E
:10150000E7FA03B05DF804FB10120020A4520008B3
:1015100008B5064B9B6993F82330002B02D1FFF7E7
:1015200077FF01E0FFF7ACFF08BD00BF10120020FD
:1015300084B00190019B1B680393039B1A68019B75
:101540001A60039B184604B0704700BFAFF30080D9
:1015500082B001900091019B009A9A60019B022247
:1015600083F82020019B002283F82120019B142274
:1015700083F82320019B009A5A64019B00221A647D
:10158000019B0022DA63019B00225A62019B012227
:1015900083F82220019B00229A61019B124A1A6162
:1015A000114B5A69019B5A61019B5B690E4A019973
:1015B00051610D4A52691A61019B03F12C02019B92
:1015C000DA62019B03F13002019B5A63019B5A6B63
:1015D000019B1A63019B03F14C02019BDA61019BA1
:1015E000184602B0704700BF10120020AFF3008011
:1015F00084B00390029113468DF8073005E0039BF9
:101600005A1C03929DF807201A70039A029B9A4273
:10161000F5D304B0704700BFAFF30080AFF3008094
:1016200000B587B00390029101920093039B05934C
:10163000FFF736FC039B002B09D0029BB3F59C7F80
:1016400005D3019B7F2B02D8009B002B02D10F48B2
:10165000FFF79EFC029B643B039A1A44059BDA60E9
:10166000059BDB68009A1A64059BDB68089A5A643C
:10167000059BDB68064A1A6605980199FFF768FF23
:101680000346184607B05DF804FB00BFC0520008CF
:10169000F10A0008AFF30080AFF30080AFF30080E1
:1016A00000B589B00590049103920293059B4C33D9
:1016B00005981946FF22FFF79BFF059B03F14C029B
:1016C0000599049B0B44104619465522FFF790FFDD
:1016D000202383F31188FFF743FB0A9B00930598AF
:1016E0000499039A029BFFF79BFF0790079800213C
:1016F000FFF73EFEFFF74CFB002383F31188079BA7
:10170000184609B05DF804FBAFF30080AFF300802A
:1017100000B583B00190019B002B02D10948FFF76F
:1017200037FC202383F31188FFF71AFB0620019969
:10173000FFF7E6FDFFF72CFB002383F3118803B0CE
:101740005DF804FB00530008AFF30080AFF30080A6
:1017500000B583B00190202383F31188FFF700FBCD
:10176000019800F005F803B05DF804FBAFF30080CA
:1017700000B585B00190184B9B690393039B019AB8
:101780009A6208E0039B2C331846FFF7D1FE03460C
:101790001846FFF7EDFC039BDA6A039B2C339A4251
:1017A000F0D1039B93F8213003F00303002B09D100
:1017B000039B5B69039A12691A61039B1B69039A75
:1017C00052695A610E20FFF713FD0448FFF7E0FB52
:1017D00005B05DF804FB00BF101200201053000894
:1017E00000B583B00190019B002B02D10748FFF7A1
:1017F000CFFB019A019B5A60019B5A68019B1A60BA
:10180000019B00229A6003B05DF804FB605300085E
:1018100000B585B001900091FFF742FB019B002BC2
:1018200002D10F48FFF7B4FB019B1B68039310E044
:10183000039BDA68009B1A43039BDA60039B5A6898
:10184000039B9B681046194600F012F8039B1B6827
:101850000393039A019B9A42EAD105B05DF804FB19
:101860003C540008AFF30080AFF30080AFF300807A
:1018700000B583B001900091FFF712FB019B002B94
:1018800002D11648FFF784FB019BDA6B009B1A43D9
:10189000019BDA63019B93F82030082B06D1019B52
:1018A000DA6B019B9B6A1340002B0DD1019B93F8CF
:1018B0002030092B0ED1019BDA6B019B9B6A1A40E9
:1018C000019B9B6A9A4205D10198FFF751FC0346A0
:1018D00000229A6203B05DF804FB00BF6454000864
:1018E00082B001900091019B009A1A60009B5A6897
:1018F000019B5A60019B5B68009A01995160009AB4
:1019000052681A6002B07047AFF30080AFF30080F6
:1019100084B00190019B1B680393039B1A68019B91
:101920001A60019B1B68019A5A60039B184604B019
:10193000704700BFAFF30080AFF30080AFF30080CB
:1019400000B583B001900091009B002B02D14FF0B5
:10195000FF330FE0094B9B69019A9A62074B9A6922
:10196000019B10461946FFF7BBFF0D200099FFF7BA
:10197000C7FC0346184603B05DF804FB10120020B4
:1019800084B00390029101920093039A039B5A60E2
:10199000039B5A68039B1A60039B00229A60039B77
:1019A000029A5A61039B5A69039B9A61039B9A6945
:1019B000039BDA60029A019B1A44039B1A61039B02
:1019C000009ADA61039B049A1A6204B0704700BF60
:1019D00000B583B00190FFF763FA019BDA68019BC1
:1019E0005A61019B5A69019B9A61019B00229A608E
:1019F0000BE0019B1846FFF78BFF03461846FFF7E5
:101A0000B7FB03466FF001029A62019B1A68019BC3
:101A10009A42EED103B05DF804FB00BFAFF3008043
:101A200000B585B001900091202383F31188FFF762
:101A300097F9019BDB69002B04D0019BDB690198BE
:101A400098470FE00EE001980099FFF779FF0390A7
:101A5000039B002B06DAFFF79BF9002383F3118821
:101A6000039B21E0019B9B68002BECD0019B9B68B2
:101A70005A1E019B9A60019B9B69591C019A9161B6
:101A80001B788DF80B30019B9A69019B1B699A4268
:101A900003D3019BDA68019B9A61FFF779F9002370
:101AA00083F311889DF80B30184605B05DF804FBF0
:101AB00000B587B00390029101920093039BDB690C
:101AC000049300230593019B002B02D12A48FFF7C2
:101AD0005FFA202383F31188FFF742F9049B002B60
:101AE00003D0049B039898470EE00DE003980099FB
:101AF000FFF726FF0346002B06D0FFF749F9002326
:101B000083F31188059B32E0039B9B68002BEDD08B
:101B1000039B9B685A1E039B9A60029B5A1C02926D
:101B2000039A9269501C0399886112781A70039B7A
:101B30009A69039B1B699A4203D3039BDA68039B50
:101B40009A61FFF725F9002383F31188059B013380
:101B50000593019B013B0193019B002B01D1059B48
:101B600005E0202383F31188FFF7FAF8B6E718465B
:101B700007B05DF804FB00BFA0540008AFF300807D
:101B800084B00390029101920093039A039B5A60E0
:101B9000039B5A68039B1A60039B019A9A60039BFC
:101BA000029A5A61039B5A69039B9A61039B9A6943
:101BB000039BDA60029A019B1A44039B1A61039B00
:101BC000009ADA61039B049A1A6204B0704700BF5E
:101BD00000B583B00190FFF763F9019BDA68019BC0
:101BE0005A61019B5A69019B9A61019B1B691A46C4
:101BF000019BDB68D31A1A46019B9A600BE0019B9C
:101C00001846FFF785FE03461846FFF7B1FA03466C
:101C10006FF001029A62019B1A68019B9A42EED111
:101C200003B05DF804FB00BFAFF30080AFF30080AA
:101C300000B587B003900B4601928DF80B3020233E
:101C400083F31188FFF78CF80EE003980199FFF7F2
:101C500077FE0590059B002B06DAFFF799F8002325
:101C600083F31188059B28E0039B9B68002BECD035
:101C7000039B9B685A1E039B9A60039B5B69591CDC
:101C8000039A51619DF80B201A70039B5A69039BBC
:101C90001B699A4203D3039BDA68039B5A61039B37
:101CA000DB69002B03D0039BDB6903989847FFF7A0
:101CB0006FF8002383F311880023184607B05DF8FE
:101CC00004FB00BFAFF30080AFF30080AFF30080F0
:101CD00000B587B00390029101920093039BDB69EA
:101CE000049300230593019B002B02D12A48FFF7A0
:101CF0004FF9202383F31188FFF732F80DE00398A2
:101D00000099FFF71DFE0346002B06D0FFF740F8B1
:101D1000002383F31188059B39E0039B9B68002B0C
:101D2000EDD0039B9B685A1E039B9A60039B5B69E3
:101D3000591C039A5161029A511C029112781A702F
:101D4000039B5A69039B1B699A4203D3039BDA687E
:101D5000039B5A61049B002B02D0049B0398984775
:101D6000FFF716F8002383F31188059B01330593D1
:101D7000019B013B0193019B002B01D1059B06E0D8
:101D8000202383F31188FEF7EBFF00BFC5E7184659
:101D900007B05DF804FB00BFB4540008AFF3008047
:101DA000064B073323F007031A46054B1A60054B11
:101DB00023F007031A46044B1A607047A81400204A
:101DC0002C12002000C0012030120020AFF3008050
:101DD00000B585B00190202383F31188FEF7C0FF82
:101DE000019800F00DF80390FEF7D2FF002383F373
:101DF0001188039B184605B05DF804FBAFF3008023
:101E000000B585B00190FFF74BF8019B073323F035
:101E1000070301930C4B1B681A460C4B1B68D31A23
:101E20001A46019B9A4201D2002309E0074B1B6826
:101E30000393064B1A68019B1A44044B1A60039BD8
:101E4000184605B05DF804FB301200202C1200206B
:101E500008B5064B064A1A60044B00229A60034BF1
:101E60000022DA600348FFF7BBFC08BD38120020EF
:101E7000D11D000848120020AFF30080AFF30080AE
:101E800008B501F0ADF900F0B3FB064801F008FB1E
:101E900000F04EF800F0D4FD00F0B2F9FEF7B0FC0F
:101EA00008BD00BF40580008AFF30080AFF30080CA
:101EB00084B001900091104B5B680393009A019BE2
:101EC0009A420BD9039A019B9A4205D3039A009B2D
:101ED0009A4201D2012300E000230AE0039A019B09
:101EE0009A4203D2039A009B9A4201D2012300E056
:101EF0000023184604B07047001000E0AFF30080E4
:101F000000B585B00190094B5B680393039A019B70
:101F10001344029300BF03980299FFF7C9FF0346D9
:101F2000002BF8D105B05DF804FB00BF001000E005
:101F300008B501F065FA08BDAFF30080AFF300808B
:101F400082B00190019B01221A70019B00225A600D
:101F500002B07047AFF30080AFF30080AFF30080B2
:101F600000B585B0039002910192039B303318466F
:101F70000299019A4FF0FF33FFF7AAFE0346184675
:101F800005B05DF804FB00BFAFF30080AFF3008045
:101F900000B585B0039002910192039B0C33184663
:101FA0000299019A4FF0FF33FFF782FD034618466E
:101FB00005B05DF804FB00BFAFF30080AFF3008015
:101FC00000B583B001900B468DF80330019B03F1FF
:101FD00030029DF80330104619464FF0FF32FFF7EC
:101FE00027FE0346184603B05DF804FBAFF30080FC
:101FF00000B583B00190019B0C3318464FF0FF31C0
:10200000FFF70EFD0346184603B05DF804FB00BF62
:1020100000B585B003900B4601928DF80B30039B01
:1020200003F130029DF80B3010461946019AFFF774
:10203000FFFD0346184605B05DF804FBAFF30080D2
:1020400000B583B001900091019B0C3318460099B4
:10205000FFF7E6FC0346184603B05DF804FB00BF3B
:1020600000B585B00390029101920093039B303339
:1020700018460299019A009BFFF72AFE034618466C
:1020800005B05DF804FB00BFAFF30080AFF3008044
:1020900000B585B00390029101920093039B0C332D
:1020A00018460299019A009BFFF702FD0346184665
:1020B00005B05DF804FB00BFAFF30080AFF3008014
:1020C00000B587B00190019B1B6A0593059BD3F86F
:1020D00054321B681B78042B00D044E0059BD3F8D6
:1020E00054321B685B695B8A0493059BD3F85432B6
:1020F0001B68DB8903F00203002B34D1059BDB69ED
:102100001A46059B9B69D31A1A46059B5B69D31A2D
:102110000393039A049B9A4225D3FEF739FE0023CA
:1021200083F31188039A049BB2FBF3F3049A02FB36
:1021300003F30393059BD3F854321A68059B0C33C1
:10214000104601211A46039B00F082FD202383F3F1
:102150001188FEF705FE059BD3F854321B6818461C
:10216000012100F0C5FD07B05DF804FBAFF300806E
:1021700000B585B00190019B1B6A0393039BD3F8C4
:1021800054321B681B78042B00D034E0039BD3F837
:1021900054321B689B8903F00203002B2BD1039B55
:1021A0001B6C1A46039BDB6BD31A1A46039B9B6B73
:1021B000D31A0293029B002B1DD0FEF7E9FD0023EA
:1021C00083F31188039BD3F854321A68039B30338E
:1021D000104601211A46029B00F062FD202383F382
:1021E0001188FEF7BDFD039BD3F854321B681846D7
:1021F000012100F0B5FD05B05DF804FBAFF30080F0
:10220000704700BFAFF30080AFF30080AFF30080F2
:1022100000B585B00390039B144A1A60039B1A1DF6
:10222000039B5A60039B01221A72039B03F10C0269
:10223000039B543303990091104619464FF4807262
:102240000B4BFFF79DFB039B03F13002039B03F550
:10225000AA7303990091104619464FF48072054BFA
:10226000FFF78EFC05B05DF804FB00BF6059000865
:10227000C120000871210008AFF30080AFF3008097
:1022800000B583B001900091019B002B02D113484F
:10229000FEF77EFE202383F31188FEF761FD019B8C
:1022A0001B7A012B06D0019B1B7A022B02D00C4813
:1022B000FEF76EFE019B009AC3F85422009B1B6838
:1022C000019A9A60019B02221A72FEF761FD0023B7
:1022D00083F3118803B05DF804FB00BFD0540008FD
:1022E000E0540008AFF30080AFF30080AFF300804C
:1022F00000B585B00190019B9B680393039B0C3351
:102300001846FFF765FB039B30331846FFF760FC68
:10231000039B043318460121FFF77AFA039B03F16C
:102320000C02019B5B695B8A0198012100F090FC23
:102330000198012100F0DCFC05B05DF804FB00BF52
:1023400082B00190019B93F8303003F06003202BA2
:102350002CD1019B93F83130212B04D0222B18D0A3
:10236000202B0BD020E0019B124A5A62019B0722CE
:102370009A62019B0022DA62012318E0019B0D4A58
:102380005A62019B07229A62019B0022DA620123B2
:102390000DE0019B00225A62019B00229A62019B80
:1023A0000022DA62012302E0002300E00023184645
:1023B00002B0704708080020AFF30080AFF3008040
:1023C00000B585B001900B468DF80330019B9B68EA
:1023D0000393202383F31188FEF7F2FC039B04335D
:1023E00018460821FFF714FA039B1B6C1A46039B3F
:1023F000DB6BD31A1A46039B9B6BD31A0293029B87
:10240000002B1AD0FEF7F4FC002383F31188039B02
:1024100030339DF80320019811461A46029B00F0C4
:102420003FFC202383F31188FEF7CAFC9DF803309C
:102430000198194600F094FC2CE09DF80320019BC4
:10244000043253F822305B695A689DF80310019BEF
:10245000043153F821301B8A013B1340002B19D162
:10246000FEF7C6FC002383F31188039B30339DF8ED
:102470000320019811461A46002300F011FC202386
:1024800083F31188FEF79CFC9DF8033001981946F0
:1024900000F066FCFEF7ACFC002383F3118805B066
:1024A0005DF804FBAFF30080AFF30080AFF3008072
:1024B00000B587B001900B468DF80330019B9B68F7
:1024C0000593202383F31188FEF77AFC059B0433E0
:1024D00018460421FFF79CF9019B5B695B8A049312
:1024E000059BDB691A46059B9B69D31A1A46059B17
:1024F0005B69D31A0393039A049B9A4221D3FEF794
:1025000077FC002383F31188039A049BB2FBF3F357
:10251000049A02FB03F30393059B0C339DF80320FD
:10252000019811461A46039B00F092FB202383F387
:102530001188FEF745FC9DF803300198194600F01C
:10254000D7FBFEF755FC002383F3118807B05DF835
:1025500004FB00BFAFF30080AFF30080AFF3008057
:1025600082B001900B468DF8033002B0704700BF77
:1025700082B00190024B5A68019B9A6002B070478A
:10258000001000E0AFF30080AFF30080AFF30080F5
:1025900084B00190114B5B680393019B9B68039A85
:1025A000D21A0F4B1B68D21A019B9A60019B9A6842
:1025B000019BDB689A4204D9019B9A68019BDA600F
:1025C00009E0019B9A68019B1B699A4203D2019B17
:1025D0009A68019B1A6104B0704700BF001000E0C8
:1025E00058120020AFF30080AFF30080AFF30080FB
:1025F00000B587B00A4B00221A6001AB184600F004
:1026000017F8019B01AA10469847029B01AA1046A1
:102610009847039A024B1A6007B05DF804FB00BFAD
:1026200058120020AFF30080AFF30080AFF30080BA
:1026300082B00190019B084A1A60019B074A5A60C8
:10264000019B00229A60019B0022DA60019B4FF0FF
:10265000FF321A6102B07047712500089125000809
:1026600000B583B00190019B93F83220019B83F861
:102670003A20019801F014FF019B5B681B68002B56
:1026800005D0019B5B681B68019801219847019B5D
:1026900003221A7003B05DF804FB00BFAFF30080A3
:1026A00010B584B00190019B93F8303003F07F02A5
:1026B000019B93F831301B021343B3F5407F58D090
:1026C000B3F5407F12DC022B00F0EE80022B05DC1C
:1026D000002B28D0012B00F0DC80A6E1B3F5807F31
:1026E0002ED0B3F5817F00F036819EE1B3F5C06F47
:1026F00070D0B3F5C06F08DC40F20232934200F0B4
:102700005F81B3F5A06F4DD08FE1B3F5106F00F08E
:10271000988040F60242934200F0BB80B3F5006F10
:1027200000F0828081E1019B03F13802019B5A6233
:10273000019B02229A62019B0022DA62012375E169
:10274000019B93F83230012B11D1019B1B8F23F099
:1027500002039AB2019B1A87019B00225A62019BD5
:1027600000229A62019B0022DA6201235EE10023CB
:102770005CE1019B93F83230012B11D1019B1B8F3F
:1027800043F002039AB2019B1A87019B00225A620E
:10279000019B00229A62019B0022DA62012345E13B
:1027A000002343E1019B93F83030002B07D1019BBC
:1027B00093F83130052B02D10198FFF751FF019BAF
:1027C00000225A62019B00229A62019B0022DA6277
:1027D00001232BE1019B5B685C68019B93F833103C
:1027E000019B93F83220019B93F834301846019BEB
:1027F00093F835301B029BB203439BB29BB2019806
:10280000A0470390039B002B01D100230EE1039B03
:102810005A68019B5A62039B1A68019B9A62019B4A
:102820000022DA62012301E1019B03F13B02019BDB
:102830005A62019B01229A62019B0022DA62012303
:10284000F4E0019B93F83220019B83F83B20019B2D
:1028500093F83B30002B03D1019B03221A7002E056
:10286000019B04221A70019B5B681B68002B05D03A
:10287000019B5B681B68019802219847019B00221D
:102880005A62019B00229A62019B0022DA620123B4
:10289000CCE0019B674A5A62019B02229A62019B2B
:1028A0000022DA620123C1E0019B93F83430DBB2ED
:1028B0005BB2002B27DA019B93F8343003F00F034F
:1028C000DBB20198194601F043FF0346012B02D009
:1028D000022B0BD015E0019B574A5A62019B022242
:1028E0009A62019B0022DA6201239FE0019B534A16
:1028F0005A62019B02229A62019B0022DA62012342
:1029000094E0002392E0019B93F8343003F00F032E
:10291000DBB20198194601F0FBFE0346012B02D001
:10292000022B0BD015E0019B434A5A62019B022205
:102930009A62019B0022DA62012377E0019B3F4A01
:102940005A62019B02229A62019B0022DA620123F1
:102950006CE000236AE0019B93F83230002B01D039
:10296000002363E0019B93F8343003F00F03002B46
:102970001BDD019B93F83430DBB25BB2002B0ADA2B
:10298000019B93F8343003F00F03DBB20198194632
:1029900002F04EF809E0019B93F8343003F00F0386
:1029A000DBB20198194602F023F8019B00225A621B
:1029B000019B00229A62019B0022DA62012335E02A
:1029C000019B93F83230002B01D000232EE0019BB5
:1029D00093F8343003F00F03002B1BDD019B93F8B9
:1029E0003430DBB25BB2002B0ADA019B93F834304F
:1029F00003F00F03DBB20198194601F0D9FF09E09B
:102A0000019B93F8343003F00F03DBB201981946B1
:102A100001F0AEFF019B00225A62019B00229A62E4
:102A2000019B0022DA62012300E00023184604B073
:102A300010BD00BF80590008A05900089059000837
:102A400008B501F0DDFB08BDAFF30080AFF30080F7
:102A500082B00190019B01221A70019B00225A60F2
:102A6000019B00229A60019B00229A81019B002217
:102A7000DA8102B0704700BFAFF30080AFF300808F
:102A800000B585B001900091019B002B02D0009B06
:102A9000002B02D11948FEF77BFA202383F311881B
:102AA000FEF75EF9019B1B78012B06D0019B1B787A
:102AB000022B02D01248FEF76BFA019B009A5A6073
:102AC0000023039308E0019B039A0432002143F89A
:102AD0002210039B01330393039B032BF3D901982B
:102AE00001F0BEFB019B02221A70FEF751F9002390
:102AF00083F3118805B05DF804FB00BF1055000892
:102B000020550008AFF30080AFF30080AFF30080E2
:102B100000B585B003900B4601928DF80B30FEF79F
:102B2000BFF9039B002B02D0019B002B02D11D4853
:102B3000FEF72EFA039B1B78042B02D01A48FEF7EF
:102B400027FA9DF80B20039B043253F82230002B08
:102B500002D01648FEF71CFA019B5B69002B06D0D9
:102B6000019B5B6918460021102202F0F1F9019BDC
:102B70009B69002B06D0019B9B69184600211022FF
:102B800002F0E6F99DF80B20039B0432019943F80B
:102B900022109DF80B300398194601F099FC05B0FE
:102BA0005DF804FB4C55000864550008805500088A
:102BB00000B587B00390019200930B468DF80B305F
:102BC0009DF80B20039B043253F822309B69059338
:102BD000059B00221A60059B019ADA60059B009A0A
:102BE0005A60059B00229A609DF80B3003981946A5
:102BF00001F0E6FD07B05DF804FB00BFAFF3008015
:102C000000B587B00390019200930B468DF80B300E
:102C10009DF80B20039B043253F822305B69059327
:102C2000059B00221A60059B019ADA60059B009AB9
:102C30005A60059B00229A609DF80B300398194654
:102C400001F0FEFD07B05DF804FB00BFAFF30080AC
:102C500000B587B00390019200930B468DF80B30BE
:102C60009DF80B20039B043253F822309B69059397
:102C7000059B01221A60059B019ADA60059B009A68
:102C80005A60059B00229A609DF80B300398194604
:102C900001F096FD07B05DF804FB00BFAFF30080C4
:102CA00000B587B00390019200930B468DF80B306E
:102CB0009DF80B20039B043253F822305B69059387
:102CC000059B01221A60059B019ADA60059B009A18
:102CD0005A60059B00229A609DF80B3003981946B4
:102CE00001F0AEFD07B05DF804FB00BFAFF300805C
:102CF00000B583B001900B468DF80330FEF7D0F895
:102D0000019B002B02D11448FEF742F9019BDB899D
:102D10001A469DF8033042FA03F303F00103002B37
:102D200001D0012314E0019BDB899AB29DF80330A6
:102D3000012101FA03F39BB213439BB29AB2019BA8
:102D4000DA819DF803300198194601F0C9FD00238E
:102D5000184603B05DF804FBD4550008AFF30080BB
:102D600000B583B001900B468DF80330FEF798F85C
:102D7000019B002B02D11448FEF70AF9019B9B89A5
:102D80001A469DF8033042FA03F303F00103002BC7
:102D900001D0012314E0019B9B899AB29DF8033076
:102DA000012101FA03F39BB213439BB29AB2019B38
:102DB0009A819DF803300198194601F0B1FD002376
:102DC000184603B05DF804FBEC550008AFF3008033
:102DD00000B585B00190019B02221A70019B002270
:102DE0001A87019B002283F83A20019B002283F876
:102DF0003B20019B00229A81019B0022DA81002363
:102E0000039308E0019B039A0432002143F8221047
:102E1000039B01330393039B032BF3D9019B0022F4
:102E200083F82020019801F0A3FA05B05DF804FBB7
:102E300000B585B001900B468DF80330019B002250
:102E400083F82020019B30339DF803200198114620
:102E50001A4601F09DFC019B5B689B68002B07D024
:102E6000019B5B689B68019898470346002B24D11F
:102E7000019B93F8303003F06003002B05D10198DB
:102E8000FFF70EFC0346002B17D10198002101F03B
:102E90008FFD0198002101F06BFD019B5B681B68B1
:102EA000002B05D0019B5B681B68019805219847A2
:102EB000019B052283F8202087E0019B93F83630A0
:102EC0001A46019B93F837301B0213430393019B6F
:102ED0009A6A039B9A4202D9019B039A9A62019BC8
:102EE00093F83030DBB25BB2002B37DA019B9B6A80
:102EF000002B1AD0019B012283F82020019B5A6AE3
:102F0000019B9B6A01980021FFF77AFE202383F33F
:102F10001188FDF755FF01980021FFF721FFFDF70C
:102F200067FF002383F311884FE0019B022283F89F
:102F300020200198002100220023FFF739FE2023E2
:102F400083F31188FDF73CFF01980021FFF7D0FEC5
:102F5000FDF74EFF002383F3118836E0019B9B6A47
:102F6000002B1AD0019B032283F82020019B5A6A70
:102F7000019B9B6A01980021FFF71AFE202383F32F
:102F80001188FDF71DFF01980021FFF7B1FEFDF745
:102F90002FFF002383F3118817E0019B042283F89D
:102FA00020200198002100220023FFF729FE202382
:102FB00083F31188FDF704FF01980021FFF7D0FE8D
:102FC000FDF716FF002383F3118805B05DF804FBBD
:102FD00000B585B001900B468DF80330019B93F846
:102FE0002030012B02D0042B49D055E0019B93F8EF
:102FF00036301A46019B93F837301B021343039374
:10300000019B9A6A039B9A4220D2019B9B6A019A78
:103010001269128AB3FBF2F102FB01F29B1A002B38
:1030200014D10198002100220023FFF7E9FD20239D
:1030300083F31188FDF7C4FE01980021FFF790FE8D
:10304000FDF7D6FE002383F311883CE0019B0222AA
:1030500083F820200198002100220023FFF7A8FD1B
:10306000202383F31188FDF7ABFE01980021FFF7C1
:103070003FFEFDF7BDFE002383F3118823E0019B93
:10308000DB6A002B03D0019BDB6A01989847019B08
:10309000002283F8202016E00198002101F088FC2E
:1030A0000198002101F064FC019B5B681B68002B08
:1030B00005D0019B5B681B68019805219847019B1F
:1030C000052283F8202005B05DF804FBAFF30080F3
:1030D00000B583B001900B468DF80330019B93F847
:1030E0002030022B1AD0032B2CD1019B042283F811
:1030F00020200198002100220023FFF781FD2023DA
:1031000083F31188FDF75CFE01980021FFF728FE8C
:10311000FDF76EFE002383F311882AE0019B1B69F3
:103120009B699B68002B00D00CE0019BDB6A002BA5
:1031300003D0019BDB6A01989847019B002283F82A
:10314000202016E00198002101F032FC01980021B6
:1031500001F00EFC019B5B681B68002B05D0019BF6
:103160005B681B68019805219847019B052283F83D
:10317000202003B05DF804FBAFF30080AFF30080C4
:10318000134B134A126842F480721A60114B1B6F82
:1031900003F44073B3F5007F06D00E4B4FF480323A
:1031A0001A670C4B00221A670A4B1B6F03F400438B
:1031B000002B0BD1074B074A126F42F400721A67BB
:1031C000044B044A126F42F400421A67704700BF72
:1031D0000070004000380240AFF30080AFF3008081
:1031E00008B5254B244A126942F001021A61224BAC
:1031F00000221A61204B204A526942F001025A61B2
:103200001D4B00225A611C4B1B4A926942F001027D
:103210009A61194B00229A61174B174A126A1A6277
:10322000154B00221A62144B134A526A42F00102F3
:103230005A62114B00225A62104B44F29F125A609C
:103240000E4B00229A600D4B07221A600C4B0C4A61
:10325000D26842F08072DA600A4B0A4A126842F081
:1032600001021A60044B044A126C42F080521A6444
:10327000FFF786FF08BD00BF0038024010E000E005
:10328000F0ED00E0001000E0AFF30080AFF300804D
:10329000344B4FF080521A64334B4FF480421A6023
:1032A00000BF314B5B6803F48043002BF9D02D4BFA
:1032B0002C4A126842F001021A6000BF294B1B68B9
:1032C00003F00203002BF9D0264B264A126842F481
:1032D00080321A6000BF234B1B6803F40033002BBD
:1032E000F9D0204B1F4A526F42F001025A6700BFCB
:1032F0001C4B5B6F03F00203002BF9D0194B1B4AE8
:103300005A60184B174A126842F080721A6000BF68
:10331000144B1B6803F00073002BF9D0114A114BBA
:103320009968134B0B439360124B40F205721A607D
:103330000C4B0C4A926842F002029A6000BF094BA3
:103340009B6803F00C03082BF9D1064B054A526C1D
:1033500042F480425A64034B024A526E42F4804265
:103360005A66704700380240007000400854400719
:1033700000940838003C0240AFF30080AFF30080B7
:1033800000B583B00190019BDB6800221A82019B8B
:103390001B78042B05D1019B02221A70019800F0C2
:1033A00047F8019B5B685B680198984703B05DF83C
:1033B00004FB00BFAFF30080AFF30080AFF30080E9
:1033C00008B5FDF72DFD0448FFF7DAFFFDF748FDCE
:1033D000FDF716FB08BD00BF5C120020AFF30080B4
:1033E00008B5FDF71DFD0448FFF7CAFFFDF738FDDE
:1033F000FDF706FB08BD00BF6C120020AFF3008094
:1034000008B5074B074ADA600548FEF799FD064BF9
:103410004FF08042DA600448FEF792FD08BD00BF1D
:103420005C120020000001406C120020AFF300800D
:1034300082B00190019BDB6800221A80019BDB684F
:1034400000221A82019BDB6800229A8102B0704739
:1034500082B001900091009B5A68019B5A60009BCA
:103460009A68019B9A60009BDA68019BDA60009B76
:103470001A69019B5A61009B5A69019B1A62009B61
:103480009A69019B5A62009B1A68019B1A6002B0FC
:10349000704700BFAFF30080AFF30080AFF3008050
:1034A00000B583B00190244A234B1B6B6FEA532372
:1034B0006FEA43231363204A1F4B1B6D6FEA5323AC
:1034C0006FEA43231365019B1C481946FFF7C0FFB1
:1034D000019B1C331A481946FFF7BAFF019B38338A
:1034E00018481946FFF7B4FF019B54331648194694
:1034F000FFF7AEFF019B703314481946FFF7A8FF92
:10350000019B8C3312481946FFF7A2FF019BA83399
:1035100010481946FFF79CFF019BC4330E4819461B
:10352000FFF796FF019BE0330C481946FFF790FF29
:1035300003B05DF804FB00BF003802400000024009
:103540000004024000080240000C0240001002404B
:103550000014024000180240001C024000200240FB
:1035600084B00190019B1B680393039B1A68019B25
:103570001A60019B1B68019A5A60039B184604B0AD
:10358000704700BFAFF30080AFF30080AFF300805F
:1035900000B583B00190019B1B6D002B07D0019BF0
:1035A0001B6D1846FDF7E4FD019B00221A6503B070
:1035B0005DF804FBAFF30080AFF30080AFF3008051
:1035C00000B585B00190019BDB6B0393039B012247
:1035D0001A6100BF039B1B6903F00103002BF9D1A3
:1035E0000C20FEF78DFC00BF039B1B69002BFBDA50
:1035F00005B05DF804FB00BFAFF30080AFF30080BF
:1036000084B00190019BDB6B0293002303936CE079
:10361000029A039B48335B0113441B68002B14DAA6
:10362000029A039B48335B0113444FF080421A60B7
:1036300000BF029A039B5B01134403F608131B6847
:1036400003F00203002BF4D006E0029A039B4833F8
:103650005B01134400221A60029A039B5B0113442E
:1036600003F5116300221A60029A039B5B01134465
:1036700003F608134FF0FF321A60029A039B583387
:103680005B0113441B68002B14DA029A039B583326
:103690005B0113444FF080421A6000BF029A039B03
:1036A0005B01134403F608331B6803F01003002B7F
:1036B000F4D006E0029A039B58335B0113440022C6
:1036C0001A60029A039B5B01134403F531630022E5
:1036D0001A60029A039B5B01134403F608334FF010
:1036E000FF321A60039B01330393019B1B6C9A68A2
:1036F000039B9A428CD2029B4FF00112C3F81C2804
:1037000004B07047AFF30080AFF30080AFF30080E8
:1037100000B585B00190019BDB6B0393039B1022E6
:103720001A6100BF039B1B6903F01003002BF9D142
:103730000C20FEF7E5FB05B05DF804FBAFF300805D
:1037400000B585B001900091019BDB6B0393009B5A
:103750009B0143F02002039B1A6100BF039B1B697E
:1037600003F02003002BF9D10C20FEF7C9FB05B0B4
:103770005DF804FBAFF30080AFF30080AFF300808F
:1037800082B00190019B1B6C1A68019B5A6402B0C5
:10379000704700BFAFF30080AFF30080AFF300804D
:1037A00000B585B001900091019B5B6C0393019B78
:1037B0005A6C009B1A44019B5A64019B5A6C019BF2
:1037C0001B6C5B689A4202D90348FDF7E1FB039B3F
:1037D000184605B05DF804FB40560008AFF30080C2
:1037E00084B003900291019209E0029B1A68039B46
:1037F0001A60029B04330293019B013B0193019BDE
:10380000002BF2D1029B184604B07047AFF3008042
:1038100000B585B0039002910192019B03339B0890
:10382000039802991A46FFF7DBFF05B05DF804FB29
:1038300000B58BB0039002910192019B099360E067
:10384000099B9B080693069B002B2AD0029B1B69B1
:103850001A46029B9B69D31A002B00DA03339B1094
:103860000593069A059B9A4238BF13460493049B1E
:103870009B00099AD31A0993029B9B6903981946E6
:10388000049AFFF7ADFF0246029B9A61029B9A6978
:10389000029B1B699A4204D3029BDA68029B9A61DD
:1038A0002FE0099B002B00D12EE00023089300237A
:1038B00007931DE0029B9B69591C029A91611B783A
:1038C0001A46079BDB0002FA03F3089A1343089396
:1038D000029B9A69029B1B699A4203D3029BDA6896
:1038E000029B9A61099B013B0993079B0133079354
:1038F000099B002B02D0079B032BDBD9039B089A63
:103900001A60099B002B9BD1202383F31188FDF7BC
:1039100027FA029B9A68019B1A44029B9A600AE06C
:10392000029B1846FFF71CFE03461846FDF720FCD5
:10393000034600229A62029B1A68029B9A42EFD1C8
:10394000FDF756FDFDF724FA002383F311880BB031
:103950005DF804FBAFF30080AFF30080AFF30080AD
:1039600086B00390029101920BE0039B1B680593C4
:10397000029B059A1A60029B04330293019B013B50
:103980000193019B002BF0D1029B184606B07047B3
:1039900086B00390029101920093019B03339B0830
:1039A0000193009B03339B08009311E0039B1B686A
:1039B0000593009B002B08D0029B059A1A60029B7E
:1039C00004330293009B013B0093019B013B019355
:1039D000019B002BEAD106B0704700BFAFF3008017
:1039E00000B58BB0039002910192019B099353E0C3
:1039F000099B9B080793079B002B21D0002306936C
:103A0000079A069B9A4238BF13460593059B9B0075
:103A1000099AD31A0993029B5B6903981946059A80
:103A2000FFF79EFF0246029B5A61029B5A69029B66
:103A30001B699A4204D3029BDA68029B5A612BE00D
:103A4000099B002B00D12AE0039B1B6804930023F1
:103A500008931BE0029B5B69591C029A5161089A0A
:103A6000D200049921FA02F2D2B21A70029B5A696A
:103A7000029B1B699A4203D3029BDA68029B5A613C
:103A8000099B013B0993089B01330893099B002B79
:103A900002D0089B032BDDD9099B002BA8D1202342
:103AA00083F31188FDF75CF9029B9A68019B1A4425
:103AB000029B9A600AE0029B1846FFF751FD0346FD
:103AC0001846FDF755FB034600229A62029B1A68CE
:103AD000029B9A42EFD1FDF78BFCFDF759F90023C9
:103AE00083F311880BB05DF804FB00BFAFF30080D7
:103AF00010B586B00190019BDB6B1B6A0593059B9B
:103B000003F4F013B3F5002F00F08780B3F5402FD6
:103B100003D0B3F5802F1BD080E0059A47F6F073F1
:103B200013401B090493059B03F00F030393019BB0
:103B3000DB6B03F58052019B0399043153F821306C
:103B40001B6A10461946049A0823FFF721FF65E017
:103B5000059A47F6F07313401B090493059B03F085
:103B60000F030393019B039A043253F822309B699D
:103B70001B68002B10D0019BDB6B03F58052019B6F
:103B80000399043153F821309B69DB6810461946CC
:103B9000049AFFF725FF2EE0019BDB6B03F58051B4
:103BA000019B039A043253F822309B69DA68019B27
:103BB0000398043053F820309B695868019B039C9C
:103BC000043453F824309B699B68C31A0846114695
:103BD000049AFFF7DDFE019B039A043253F822306A
:103BE0009B69019A0399043152F821209269D168A6
:103BF000049A0A44DA60019B039A043253F8223093
:103C00009B69019A0399043152F8212092699168C5
:103C1000049A0A449A6000BF00E000BF06B010BDDD
:103C200000B585B001900B468DF803309DF8032058
:103C3000019B043253F822305B699A689DF80310A7
:103C4000019B043153F821305B695B689A4201D3D0
:103C500001238CE09DF80320019B043253F82230AD
:103C60005B695A689DF80310019B043153F82130B9
:103C70005B699B68D31A03939DF80320019B043270
:103C800053F822301B8A1A46039B9A4207D29DF8AA
:103C90000320019B043253F822301B8A0393019BBB
:103CA000DA6B9DF803305B01134403F618131B68AD
:103CB0009BB29A00039B9A4201D2002357E09DF8E1
:103CC0000320019B043253F822305B691B68002BF0
:103CD00014D0019BDA6B9DF8033001331B031A44A7
:103CE0009DF80310019B043153F821305B69DB68B8
:103CF00010461946039AFFF79BFD25E0019BDA6BFE
:103D00009DF8033001331B031A449DF80310019BF7
:103D1000043153F821305B69DB6810461946039A79
:103D2000FFF776FD9DF80320019B043253F8223003
:103D30005B699DF80310019A043152F82120526901
:103D4000D168039A0A44DA609DF80320019B04328B
:103D500053F822305B699DF80310019A043152F840
:103D6000212052699168039A0A449A605EE71846D6
:103D700005B05DF804FB00BFAFF30080AFF3008037
:103D800000B585B001900B468DF80330019BDB6BCD
:103D900003939DF80330039A5B01134403F6081361
:103DA0001B6802939DF80330039A5B01134403F6EA
:103DB00008134FF0FF321A60029B03F00103002B3F
:103DC00022D0039BD3F8103803F00103002B1BD043
:103DD000019B9B899AB29DF80330012101FA03F3FC
:103DE0009BB2DB439BB213409BB29AB2019B9A8178
:103DF0009DF80320019B043253F822309B689DF804
:103E00000320019811469847029B03F08003002B82
:103E10002ED0039BD3F834289DF80330012101FAFA
:103E200003F31340002B23D0202383F31188FCF7E6
:103E3000C7FF019B9A6C9DF80330012101FA03F33F
:103E40001A43019B9A64039BD3F834289DF80330EE
:103E5000012101FA03F3DB431A40039BC3F8342822
:103E60000198FFF795FBFCF7C3FF002383F311884C
:103E700005B05DF804FB00BFAFF30080AFF3008036
:103E800000B585B001900B468DF80330019BDB6BCC
:103E900003939DF80330039A5B01134403F6083340
:103EA0001B6802939DF80330039A5B01134403F6E9
:103EB00008334FF0FF321A60029B03F00803002B17
:103EC00012D0039BD3F8143803F00803002B0BD057
:103ED0009DF80320019B043253F822305B689DF863
:103EE0000320019811469847029B03F00103002B21
:103EF00022D0039BD3F8143803F00103002B1BD00E
:103F0000019BDB899AB29DF80330012101FA03F38A
:103F10009BB2DB439BB213409BB29AB2019BDA8106
:103F20009DF80320019B043253F82230DB689DF892
:103F3000032001981146984705B05DF804FB00BFC7
:103F400000B587B00190019BDB6B0593059B5A6917
:103F5000059B9B6913400493059B049A5A61049B3B
:103F600003F48053002B0DD00198FEF731FF019B25
:103F70005B681B68002B05D0019B5B681B68019880
:103F800000219847049B03F40053002B02D0059BAB
:103F9000D3F80838049B03F00803002B09D0019BD9
:103FA0005B68DB68002B04D0019B5B68DB680198D1
:103FB0009847049B03F01003002B12D0202383F3B7
:103FC0001188FCF7FDFE059B9B6923F01002059B01
:103FD0009A610198FFF7DCFAFCF70AFF002383F3EC
:103FE0001188059BD3F818380393049B03F48023AE
:103FF000002B23D0039B03F00103002B03D0019877
:104000000021FFF7BDFE039B03F00203002B03D04A
:1040100001980121FFF7B4FE039B03F00403002B7A
:1040200003D001980221FFF7ABFE039B03F00803C6
:10403000002B03D001980321FFF7A2FE049B03F499
:104040000023002B23D0039B03F48033002B03D0E9
:1040500001980021FFF714FF039B03F40033002BAA
:1040600003D001980121FFF70BFF039B03F480238A
:10407000002B03D001980221FFF702FF039B03F4FA
:104080000023002B03D001980321FFF7F9FE07B0AE
:104090005DF804FBAFF30080AFF30080AFF3008066
:1040A00000B589B00190019B0693069BDB6B0593DD
:1040B000464B9B69464A9A61202383F31188FCF79B
:1040C0004FFE069B1B78012B09D0069B9B6C002B97
:1040D00012D1059B5B6903F01003002B0CD1059BEB
:1040E0009B6943F01002059B9A61384B9A69069BC5
:1040F0001A650220FDF77CF8FCF74AFE002383F3E3
:10410000118800238DF81F3053E002E00698FFF776
:10411000EFFC059B5B6903F01003002BF6D19DF8C3
:104120001F30012202FA03F30493069B9A6C049B4E
:104130001340002B38D0202383F31188FCF710FEA6
:10414000059B9B6823F00102059B9A60069B9A6C75
:10415000049BDB431A40069B9A64FCF719FE00237C
:1041600083F311889DF81F3006981946FFF758FD14
:104170000390202383F31188FCF7F2FD059B9B68D5
:1041800043F00102059B9A60039B002B07D1059B1E
:10419000D3F83428049B1A43059BC3F83428FCF752
:1041A000F7FD002383F311889DF81F3001338DF84C
:1041B0001F309DF81F20069B1B6C9B689A42A4D958
:1041C000202383F31188FCF7CBFD7AE7101200203F
:1041D00058560008AFF30080AFF30080AFF30080C3
:1041E00008B5FCF71DFE0448FFF7AAFEFCF738FEF1
:1041F000FCF706FC08BD00BF80120020AFF3008072
:1042000000B583B01348FEF723FC124B0022DA649A
:10421000104B00221A650F4B4FF0A042DA630D4B92
:104220000D4A1A640D4B0193019B4C3301981946BA
:10423000FF22FDF7DDF9019B03F14C02019B03F521
:10424000B673104619465522FDF7D2F903B05DF852
:1042500004FB00BF80120020E0590008D8120020A3
:1042600000B587B00390039BDB6B0593039B1B7822
:10427000012B6BD1039A374B9A4212D1364B364AF7
:10428000526B42F080025A63334B334A526942F018
:1042900080025A61304B00225A614320E021FCF732
:1042A00037FC039B00229A64039BDB6C002B11D12B
:1042B000039B5833039A009218464FF4DC71022294
:1042C000264BFDF7ADF90246039B1A65039B1A6D59
:1042D000039BDA64059B224ADA60059B214AC3F8F6
:1042E0000028059B0022C3F8002E059B4FF45022A6
:1042F0009A630398FFF764F9059B00229A6003987C
:10430000FFF77EF9059B0022C3F81028059B0022C9
:10431000C3F81428059B0022C3F81C28039B5B6884
:10432000DB68002B04D1059B4FF440529A6103E0F7
:10433000059B43F208029A61059B4FF0FF325A61D8
:10434000059B9B6843F00102059B9A6007B05DF8EE
:1043500004FB00BF8012002000380240A14000088A
:104360004014004003002002AFF30080AFF3008050
:1043700010B584B00190019BDB6B02930198002182
:10438000FFF7DEF90023039322E0029A039B4833F0
:104390005B0113444FF000621A60029A039B58338A
:1043A0005B0113444FF000621A60029A039B5B01A9
:1043B000134403F60813FF221A60029A039B5B0161
:1043C000134403F60833FF221A60039B013303935F
:1043D000019B1B6C9A68039B9A42D6D2029B4FF0BA
:1043E000FF32C3F81828029B4FF00112C3F81C28B3
:1043F0000198FFF7C5F9019B1B6C1A68029B5A6272
:104400000198FFF785F9029BD3F8003823F4FE6288
:10441000029BC3F80028029B9B6943F4402343F0AE
:104420001003029A9361029B0922C3F81028029B91
:104430000922C3F81428019B164A1A61029B002224
:10444000C3F8102B402343F0805343F40043029AF7
:10445000C2F8003B029B0022C3F81029402343F01E
:10446000805343F40043029AC2F8003940239B086A
:104470009BB21B041C4640239B089BB20198194623
:10448000FFF78EF9034644EA0302029B9A6204B0E6
:1044900010BD00BFB0590008AFF30080AFF300803B
:1044A00084B00190019BDB6B0393039BD3F800382E
:1044B00023F4FE62019B93F83A301B011A43039BDD
:1044C000C3F8002804B07047AFF30080AFF300805A
:1044D00030B587B001900B468DF80330019BDB6B44
:1044E00003939DF80320019B043253F822301B688C
:1044F00003F00303032B00F2FE8001A252F823F025
:1045000011450008174500081D450008234500080F
:104510007A4B059308E07A4B059305E0794B0593B8
:1045200002E0794B059300BF9DF80330039A5B01CD
:10453000134403F5316300221A609DF80320019BA8
:10454000043253F82230DB68002B1ED09DF8033074
:104550009DF80310019A043152F82120528A114625
:10456000059A0A43039958335B010B441A60039B75
:10457000D3F81C289DF803301033012101FA03F30E
:104580001A43039BC3F81C281DE09DF803309DF8D7
:1045900003200399583252010A44126822F400425F
:1045A000039958335B010B441A60039BD3F81C2812
:1045B0009DF803301033012101FA03F3DB431A4065
:1045C000039BC3F81C289DF80330039A5B01134436
:1045D00003F5116300221A609DF80320019B043249
:1045E00053F822309B68002B58D09DF80320019B84
:1045F000043253F822301B8A9B089BB204939DF827
:104600000320019B043253F822309B8B012B0BD9E2
:104610009DF80320019B043253F822309B8B1A46ED
:10462000049B02FB03F304939DF803305C1E049B80
:104630001D0401980499FFF7B3F8034645EA030205
:10464000039904F140039B000B445A609DF803302A
:1046500001981946FFF774F89DF803309DF8032080
:1046600092051146059A11439DF80300019A043002
:1046700052F82020128A0A43039948335B010B4405
:104680001A60039BD3F81C289DF80330012101FA1E
:1046900003F31A43039BC3F81C282DE09DF8033055
:1046A000013B039A40339B001344184A5A609DF81B
:1046B000033001981946FFF743F89DF803309DF841
:1046C00003200399483252010A44126822F400423E
:1046D000039948335B010B441A60039BD3F81C28F1
:1046E0009DF80330012101FA03F3DB431A40039BD9
:1046F000C3F81C2800E000BF07B030BD00800010E8
:10470000008004100080081000800C1000040002DB
:1047100084B001900B468DF80330019BDA6B9DF855
:10472000033058335B0113441B680393039B03F46A
:104730000043002B01D1002307E0039B03F4001387
:10474000002B01D0012300E00223184604B070477B
:1047500084B001900B468DF80330019BDA6B9DF815
:10476000033048335B0113441B680393039B03F43A
:104770000043002B01D1002307E0039B03F4001347
:10478000002B01D0012300E00223184604B070473B
:1047900000B585B003900B4601928DF80B309DF863
:1047A0000B20039B043253F822301B6A01981946F0
:1047B0000822FBF7EDFC05B05DF804FBAFF30080C9
:1047C00010B485B001900B468DF803309DF803209E
:1047D000019B043253F822309B690393039B5A6870
:1047E0009DF80310019B043153F821305B8A134478
:1047F0005A1E9DF80310019B043153F821305B8A47
:10480000B2FBF3F30293019BD96B9DF80330029A3C
:10481000D0049DF80340019A043452F82420528AAF
:10482000024342F0C0425B010B4403F531631A605E
:1048300005B05DF8044B7047AFF30080AFF3008024
:1048400010B485B001900B468DF803309DF803201D
:10485000019B043253F822305B690393039B5B682E
:10486000002B0BD1019BDA6B9DF803305B011344E5
:1048700003F511634FF400221A6028E0039B5A6885
:104880009DF80310019B043153F821301B8A134417
:104890005A1E9DF80310019B043153F821301B8AE6
:1048A000B2FBF3F30293019BD96B9DF80330029A9C
:1048B000D0049DF80340019A043452F82420526930
:1048C000526802435B010B4403F511631A6005B0A3
:1048D0005DF8044B704700BFAFF30080AFF300807A
:1048E00082B001900B468DF80330019BD96B9DF887
:1048F0000330019AD06B9DF80320583252010244D4
:10490000126842F0806258335B010B441A6002B0B7
:10491000704700BFAFF30080AFF30080AFF30080BB
:1049200082B001900B468DF80330019BD96B9DF846
:104930000330019AD06B9DF80320483252010244A3
:10494000126842F0044248335B010B441A60019B39
:10495000DB6B019AD26BD2F834189DF8032001204A
:1049600000FA02F20A43C3F8342802B0704700BFCD
:1049700082B001900B468DF80330019BD96B9DF8F6
:104980000330019AD06B9DF8032058325201024443
:10499000126842F4001258335B010B441A6002B0F3
:1049A000704700BFAFF30080AFF30080AFF300802B
:1049B00082B001900B468DF80330019BD96B9DF8B6
:1049C0000330019AD06B9DF8032048325201024413
:1049D000126842F4001248335B010B441A6002B0C3
:1049E000704700BFAFF30080AFF30080AFF30080EB
:1049F00082B001900B468DF80330019BD96B9DF876
:104A00000330019AD06B9DF80320583252010244C2
:104A1000126822F4001258335B010B441A6002B092
:104A2000704700BFAFF30080AFF30080AFF30080AA
:104A300082B001900B468DF80330019BD96B9DF835
:104A40000330019AD06B9DF8032048325201024492
:104A5000126822F4001248335B010B441A6002B062
:104A6000704700BFAFF30080AFF30080AFF300806A
:104A700088B00390029101920093029B0593009BE2
:104A8000002B02D1029B049301E0009B0493039B43
:104A90000B330693059B019AB3FBF2F2019901FBDC
:104AA00002F29B1A0793079B30330793079B392B1E
:104AB00002DD079B07330793069B013B0693079B89
:104AC000DAB2069B1A70059A019BB2FBF3F30593C9
:104AD000049A019BB2FBF3F30493049B002BD9D1FE
:104AE000039B0B331A46069BD31A0793039B5A1C4E
:104AF0000392069A511C069112781A70079B013B8B
:104B00000793079B002BF1D1039B184608B0704711
:104B100000B585B003900291019203980299019A21
:104B20000023FFF7A5FF0346184605B05DF804FB18
:104B30000EB400B590B0019012AB0693119B5A1CB5
:104B400011921B788DF837309DF83730002B00D14B
:104B5000F2E19DF83730252B08D0019B1B689B683C
:104B60009DF83720019811469847E4E103AB0F9375
:104B700003AB0E9300230893119B1B782D2B04D1BC
:104B8000119B013311930123089320238DF83630B4
:104B9000119B1B782E2B05D1119B013311933023D0
:104BA0008DF8363000230A93119B5A1C11921B7802
:104BB0008DF837309DF837302F2B09D99DF83730D5
:104BC000392B05D89DF83730303B8DF8373012E05F
:104BD0009DF837302A2B06D1069B1A1D06921B68BA
:104BE0008DF8373007E000BF00230B939DF8373076
:104BF0002E2B37D10AE00A9A13469B0013445B0020
:104C00001A469DF8373013440A93CDE7119B5A1C7E
:104C100011921B788DF837309DF837302F2B09D93A
:104C20009DF83730392B05D89DF83730303B8DF85B
:104C300037300BE09DF837302A2B06D1069B1A1D22
:104C400006921B688DF8373000E00BE00B9A134694
:104C50009B0013445B000B939DF837300B9A134471
:104C60000B93D3E79DF837306C2B03D09DF837308A
:104C70004C2B0DD101230993119B1B78002B06D0DF
:104C8000119B5A1C11921B788DF837300CE00BE009
:104C90009DF83730402B05D99DF837305A2B01D875
:104CA000012300E0002309939DF83730443B342B67
:104CB00000F2E18001A252F823F000BFF34D00089A
:104CC000774E0008774E0008774E0008774E0008B0
:104CD000774E0008774E0008774E0008774E0008A0
:104CE000774E0008774E0008434E0008774E0008C4
:104CF000774E0008774E0008774E0008774E000880
:104D00003B4E0008774E0008774E0008334E0008EF
:104D1000774E0008774E0008774E0008774E00085F
:104D2000774E0008774E0008774E0008774E00084F
:104D3000774E0008774E0008914D0008F34D0008AB
:104D4000774E0008774E0008774E0008774E00082F
:104D5000774E0008774E0008774E0008774E00081F
:104D6000774E0008774E0008434E0008774E000843
:104D7000774E0008774E0008AB4D0008774E0008CC
:104D80003B4E0008774E0008774E0008334E00086F
:104D900020238DF836300F9B5A1C0F92069A111D56
:104DA00006911268D2B21A706CE020238DF836306A
:104DB000069B1A1D06921B680E930E9B002B01D1B9
:104DC000604B0E930B9B002B02D147F6FF730B93A6
:104DD0000E9B0F9302E00F9B01330F930F9B1B78E9
:104DE000002B05D00B9B013B0B930B9B002BF2DAA6
:104DF00048E0099B002B05D0069B1A1D06921B68F4
:104E0000079304E0069B1A1D06921B680793079BF5
:104E1000002B07DA0F9B5A1C0F922D221A70079B4A
:104E20005B4207930F9807990A22FFF771FE0F90D4
:104E300028E010238DF8373006E00A238DF837304C
:104E400002E008238DF83730099B002B05D0069B24
:104E50001A1D06921B68079304E0069B1A1D069212
:104E60001B6807939DF837300F9807991A46FFF78C
:104E70004FFE0F9006E00F9B5A1C0F929DF83720B3
:104E80001A7000BF0F9A0E9BD31A0C930A9A0C9BB0
:104E9000D31A0A930A9B002B01DA00230A93089B7A
:104EA000002B02D10A9B5B420A930A9B002B22DA59
:104EB0000E9B1B782D2B10D19DF83630302B0CD14A
:104EC000019B1B689A680E9B591C0E911B780198D8
:104ED000194690470C9B013B0C93019B1B689B68F8
:104EE0009DF836200198114698470A9B01330A9392
:104EF0000A9B002BF1D109E0019B1B689A680E9B6D
:104F0000591C0E911B780198194690470C9B013B48
:104F10000C930C9B002BEFDA0AE0019B1B689B684B
:104F20009DF836200198114698470A9B013B0A9349
:104F30000A9B002BF1D101E610B05DF804EB03B041
:104F4000704700BF70560008AFF30080AFF30080D9
:104F5000F0B4840743D0541E002A3ED0CDB203469D
:104F600003E0621E002C38D0144603F8015B9A0758
:104F7000F7D1032C2AD9CDB245EA05250F2C45EAF5
:104F8000054515D9A4F110073F0903F1100606EBFA
:104F900007161A46156055609560D5601032B2420A
:104FA000F8D104F00F040137032C03EB07130DD9DC
:104FB0001E462246043A032A46F8045BFAD8221F0A
:104FC00022F003020432134404F003042CB1C9B2EA
:104FD0001C4403F8011BA342FBD1F0BC70471446EC
:104FE0000346C6E7000000000000000000000000CB
:104FF0006D656D007468726561647300746F6767D6
:105000006C65000074000000626C696E6B73706503
:10501000656400006273000076616C7565206F66E0
:105020002069203A202564200D0A000000000000BD
:1050300055736167653A206D656D0D0A00000000CB
:10504000636F72652066726565206D656D6F72793C
:10505000203A2025752062797465730D0A000000DE
:105060006865617020667261676D656E747320207B
:1050700020203A2025750D0A000000006865617047
:10508000206672656520746F74616C20203A20255B
:10509000752062797465730D0A00000055736167AD
:1050A000653A20746872656164730D0A000000003F
:1050B0002531307320253130732025367320253675
:1050C0007320253131732025377320253137732024
:1050D0000D0A000061646400737461636B0000007A
:1050E0007072696F00000000726566730000000056
:1050F000737461746500000074696D6500000000E0
:105100006E616D6500000000252E31306C78202521
:105110002E31306C782025366C752025366C752044
:10512000253131732025376C75202531372E3135E7
:1051300073200D0A0000000055736167653A207402
:105140006F67676C6520236C65640D0A00000000C2
:10515000626C696E6B6572005245414459000000F3
:1051600043555252454E540053555350454E4445B5
:1051700044000000575453454D00000057544D540F
:10518000580000005754434F4E440000534C4545CF
:1051900050494E47000000005754455849540000FC
:1051A00057544F52455654005754414E4445565457
:1051B00000000000534E444D53475100534E444DA0
:1051C0005347000057544D53470000005754515562
:1051D0004555450046494E414C0000000000000086
:1051E00069646C6500000000000000000000000021
:1051F00053562331000000005356233200000000B4
:10520000535623330000000053562334000000009F
:10521000535623350000000053562336000000008B
:105220005356233700000000535623380000000077
:10523000535623390000000053562331300000003C
:105240005356233131000000000000000000000030
:1052500022636856545365744922282900000000CF
:1052600022636856545265736574492228290000E8
:105270006368565452657365744928292C2023317C
:10528000000000000000000000000000000000001E
:10529000636853636852656164794928292C202327
:1052A00031000000737461636B206F766572666C09
:1052B0006F77000000000000000000000000000008
:1052C00022636854686443726561746549222829C1
:1052D000000000002263685468645365745072696A
:1052E0006F7269747922282900000000636854688D
:1052F00064526573756D6528292C202331000000E8
:10530000226368546864536C656570222829000024
:105310006368546864457869745328292C202331C4
:105320000000000022636854686457616974222891
:105330002900000063685468645761697428292C47
:105340002023310063685468645761697428292CEC
:1053500020233200000000000000000000000000D8
:105360002263684D7478496E697422282900000010
:105370002263684D74784C6F636B532228290000B8
:1053800063684D74784C6F636B5328292C2023314C
:105390000000000063684D74784C6F636B532829DC
:1053A0002C202332000000002263684D7478547270
:1053B000794C6F636B5322282900000063684D7499
:1053C00078556E6C6F636B28292C20233100000008
:1053D00063684D7478556E6C6F636B28292C20239D
:1053E0003200000063684D7478556E6C6F636B53C8
:1053F00028292C202331000063684D7478556E6C89
:105400006F636B5328292C2023320000000000001A
:1054100022636845767452656769737465724D617D
:10542000736B222829000000226368457674556E4C
:105430007265676973746572222829002263684562
:10544000767442726F6164636173744D61736B490A
:10545000222829002263684576745369676E616C5F
:10546000222829002263684576745369676E616C4F
:1054700049222829000000002263684576744469A7
:1054800073706174636822282900000063684576A0
:1054900074446973706174636828292C2023310077
:1054A00022636849515265616454696D656F757412
:1054B000222829002263684F515772697465546924
:1054C0006D656F757422282900000000000000003F
:1054D00022736475537461727422282900000000DD
:1054E000736475537461727428292C202331000071
:1054F00022736453746F70222829000073647553FB
:10550000746F7028292C2023310000000000000057
:10551000227573625374617274222829000000009E
:10552000757362537461727428292C202331000032
:105530002275736253746F70222829007573625349
:10554000746F7028292C20233100000022757362AB
:10555000496E6974456E64706F696E7449222829BA
:1055600000000000757362456E61626C65456E6493
:10557000706F696E744928292C20233100000000C7
:10558000757362456E61626C65456E64706F696EBD
:10559000744928292C2023320000000022757362F0
:1055A00044697361626C65456E64706F696E747393
:1055B0004922282900000000757362446973616202
:1055C0006C65456E64706F696E74734928292C2070
:1055D00023310000227573625374617274526563E3
:1055E00065697665492228290000000022757362EA
:1055F00053746172745472616E736D6974492228B8
:1056000029000000227573625374616C6C526563EB
:1056100065697665492228290000000022757362B9
:105620005374616C6C5472616E736D697449222895
:105630002900000000000000000000000000000041
:105640006F74675F6669666F5F616C6C6F63282952
:105650002C202331000000007573625F6C6C645F66
:1056600070756D7000000000000000000000000078
:10567000286E756C6C29000000000000000000001E
:105680001201100102000040830440570002010291
:105690000301000000000000000000000000000006
:1056A000120000008056000800000000000000000A
:1056B00009024300020100C0320904000001020295
:1056C0000100052400100105240100010424020248
:1056D0000524060001070582030800FF09040100F4
:1056E000020A0000000705010240000007058102D0
:1056F000400000000000000000000000000000006A
:1057000043000000B0560008000000000000000048
:105710000403090400000000000000000000000075
:105720002603530054004D006900630072006F00AF
:1057300065006C0065006300740072006F006E000D
:10574000690063007300000000000000000000001A
:105750003803430068006900620069004F0053008D
:105760002F0052005400200056006900720074009F
:10577000750061006C00200043004F004D002000C8
:1057800050006F0072007400000000000000000074
:105790000803320035003100000000000000000066
:1057A00004000000105700082600000020570008E1
:1057B000380000005057000808000000905700080B
:1057C0000200000000000000C1230008B12400080E
:1057D00040004000280C0020380C0020020000008F
:1057E00000000000000000000000000000000000B9
:1057F0000300000000000000612500080000000018
:1058000010000000480C0020000000000100000013
:105810000000000000000000000000000000000088
:10582000710700082107000841230008000000005C
:1058300080120020000000000000000000000000B6
:1058400000AAA02A00000000FFABFFFF54000140A7
:10585000FFFF00000000565500AA0A008020080043
:1058600040020000FFFFFFFF15455155FFFF0000FC
:105870000000000440000000018020020000000041
:10588000FFFFFFFF54154554FFFF000000000060BC
:10589000000606000001005500000000FFFFFFFFAA
:1058A00055501500FF0F0000000000000000000030
:1058B0004000000000000000FFFFFFFF00000000AC
:1058C000FFFF0000000000000000000000000000DA
:1058D00000000000FFFFFFFF00000000FFFF0000CE
:1058E00000000000000000000000000000000000B8
:1058F000FFFFFFFF00000000FFFF000000000000AE
:10590000000000000000000000000000FFFFFFFF9B
:1059100000000000FFFF0000000000000000000089
:105920000000000000000000FFFFFFFF000000007B
:10593000FFFF000000000000000000000000000069
:105940006D61696E0016411104044C080C101418A6
:105950001C20212223240000000000000000000081
:10596000611F0008911F0008C11F0008F11F0008F7
:105970001120000841200008612000089120000843
:105980000000000000000000000000000000000017
:105990000000000000000000000000000000000007
:1059A00001000000000000000000000000000000F6
:1059B00000000000312E0008D12F0008D13000086F
:1059C00040004000901400209014002001000000CE
:1059D000A0140020000000000000000000000000F3
:0C59E000800000008001000003000000B7
:1059F00032000000010000000096000000000800D6
:04000005080001905E
:00000001FF
